:020000040800F2
:10000000002000202D01000800000000000000007A
:1000100000000000000000000000000000000000E0
:1000200000000000000000000000000000000000D0
:1000300000000000000000000000000000000000C0
:10004000844641EA000313F0030349D1403A23D325
:100050000B6803604B6843608B688360CB68C36048
:100060000B6903614B6943618B698361CB69C36130
:100070000B6A03624B6A43628B6A8362CB6AC36218
:100080000B6B03634B6B43638B6B8363CB6BC36300
:1000900040304031403ADBD230320BD30B68036042
:1000A0004B6843608B688360CB68C360103010314D
:1000B000103AF3D20C3205D351F8043B40F8043B1C
:1000C000043AF9D2043208D0D2071CBF11F8013B20
:1000D00000F8013B01D30B8803806046704700BFE6
:1000E000082A13D38B07B1D010F00303AED0C3F1AD
:1000F0000403D21ADB071CBF11F8013B00F8013BD7
:10010000A4D331F8023B20F8023B9FE7043AD9D34D
:10011000013A11F8013B00F8013BF9D20B7803706A
:100120004B7843708B7883706046704772B60A488C
:100130000A490022884202DA40F8042BFAE708480C
:100140000849094A884204DA52F8043B40F8043B63
:10015000F8E700F0FFF9FEE7080000201404002093
:100160000000002008000020B417000840F66B22B1
:1001700082B001380192019B591E0191002BFAD1E6
:100180000138F7D202B0704737B507212B4B40F248
:10019000DB70D3F8E827D3F8EC57D3F8F047284BB7
:1001A000ADF800101B7969468DF80230254B01929D
:1001B0001B7808228DF8033000F0FEFE17236946F5
:1001C000ADF80030ADF802502B0C08222D0E40F295
:1001D000DB708DF80430ADF806408DF8055000F066
:1001E000EBFE2723ADF80030230C8DF80230164BC0
:1001F00069460822240E40F2DB7001938DF803401B
:1002000000F0DAFE3720114B11491A68B1F8E010FE
:10021000130CC2F30B02ADF80000ADF802208DF80C
:100220000430ADF806101B0A0822694640F2DB7064
:100230008DF8053000F0C0FE03B030BD00F0FF1FA8
:100240000C040020090400200100A1B2002004E0F9
:1002500000F7FF1F4FF0E0230021196159619961F8
:1002600072B64FF0FF32C3F88021C3F88421C3F87F
:100270008821C3F88022C3F88422C3F8882240F280
:10028000344203F1C04303F59833D9619961274B98
:100290001B68C3F30B03934230D8B3F5836F27D8A1
:1002A00040F21340224A2349834208BF0A460CE029
:1002B0006FF488621344204A9BB222FA03F313F0CE
:1002C000010F1C4B1A4A18BF1A461168536801F0F7
:1002D0007F40B0F1005F27D1D80725D5B3F1805F0B
:1002E00022D34FF0E020C0F8082D81F3088818478A
:1002F0006FF4836C6344114A9BB2DEE7B3F58B6FF6
:1003000004D8B3F5886FD3D8094ADEE740F26942D2
:10031000934206D8064A0749B3F58D6F28BF0A46AF
:10032000D3E740F27940BDE7704700BF002004E00A
:1003300000F0FF1F0000FF1F010180000105000DFC
:10034000114A124B10B5012808BF134672B64FF080
:10035000FF314FF0E022C2F88011C2F88411C2F8D8
:1003600088111868596800F07F44B4F1005F09D122
:10037000CC0707D5B1F1006F04D3C2F8083D80F374
:100380000888084730BFFDE7000002080080000829
:1003900007B5094A1278012A09D18DF8040001A98C
:1003A00040F2DE7000F008FE03B05DF804FB03B01D
:1003B0005DF804EB00F056BF0804002007B50B4BB6
:1003C0008DF800005B688DF801108DF80230084B45
:1003D00008221B7869468DF80330002340F2DB7059
:1003E000019300F0E9FD03B05DF804FB0C0400206C
:1003F00009040020114B124AB3F8E03070B59BB2EB
:1004000003F50033B2EB832F16D200F09BFE0D48AC
:1004100000F0B4FE0C4D0B4C0C4E697815F8023B05
:10042000204643EA0121023400F0BAFEB442F4D17E
:10043000BDE8704000F094BE70BD00BF00F7FF1F24
:1004400007E0030800E003080C04002008E00308AC
:100450004FF0FF30002130B50E4A0F4D937854789D
:100460001B0443EA042314782343D47843EA046347
:100470001BBA5840202300284FEA4000B8BF68400C
:10048000013BF8D10431B1F5806F02F10402E5D1EE
:1004900030BD00BF08000020B71DC1042DE9F341A5
:1004A000044653200F4600F0DDFE4FF4FA7204219B
:1004B000684600F0F5FE18B9244B5868FFF740FF76
:1004C000009E731EF52BF7D800F03CFEDFF880800D
:1004D00004EB8626082541F288324FF480614046BD
:1004E00000F0DEFE10B900F03BFEE5E704214FF41A
:1004F000FA620DEB010000F0D3FE0028F3D0FFF705
:10050000A7FF019B834207D04520013D00F0AAFED2
:1005100015F0FF05DFD1E6E74FF4806220460C4975
:100520008FB100F07EFE502004F5806400F09AFE4A
:10053000A642CFD100F014FE442000F093FE6420C8
:10054000FFF714FEB8E700F069FEECE70C040020AA
:10055000080000204FF080702DE9F04F9F4EA04D15
:10056000B3698DB043F01C03B3619E4BD3F80428EC
:1005700022F00F0242F00302C3F804289A4A1061E5
:10058000D3F8041821F0F00141F03001C3F8041849
:100590004FF000711161D3F8041821F4706141F437
:1005A0004071C3F804184FF080611161296821F08F
:1005B000706141F0407129604FF480012961296820
:1005C00021F0704141F0405129604FF40001296150
:1005D000696821F00F0141F00301696028614FF45F
:1005E0000050D3F8041C21F4700141F44011C3F809
:1005F000041C7E490861D3F8040C20F0706040F0C0
:100600004070C3F8040C4FF480400861D3F8040C28
:1006100020F0704040F04050C3F8040C4FF400400C
:100620000861D3F8000820F0704040F04050C3F853
:10063000000880201061D3F8000C20F00F0040F07B
:100640000300C3F8000C01200861D3F8000C20F06F
:10065000F00040F03000C3F8000C02200861D3F82D
:10066000001821F4700141F44011C3F80018202350
:10067000136172B64FF0E0234FF0FF324BF20101ED
:10068000C3F88021C3F88421C3F88821F369584A4C
:1006900043F0C053F361136843F480731360554B08
:1006A0009A8892B28A4208BF00224DF6D07108BFE4
:1006B0009A801A8908BF47F2305892B218BF4FF497
:1006C000FA788A4203D100221A81FFF7C3FD00277E
:1006D000494B4A49B3F8E030494C9BB2494A03F5CB
:1006E0000033B1EB832FC4E9002707D2073903C9D0
:1006F0009042C4E9000118BFC4E9002700F0D4FB10
:1007000000F044FC00F090FDB36906A943F010032B
:10071000B3616B68002623F4700343F440136B60ED
:100720004FF400536B6143F23313ADF81830364B7E
:1007300040F2DE70D3F8E837B1461A0CADF81A3043
:100740001B0E8DF81D3001238DF81C200822ADF8FA
:100750001E3000F031FCFFF717FDB8F5FA7F0CBF33
:100760000A234FF41673B346B246284F01933E70E6
:100770003B78D3B9A6EB0A03312B4BD9082240F2C0
:10078000DE7006A900F018FC4FF40052B9F1010F19
:1007900014BF6A612A61019A0BF1010B934589F03C
:1007A000010335D3B8F5FA7F32D13B78002B00F046
:1007B000FC80012B40F0C5805320FFF7E9FD3B781A
:1007C000012B00F093824FF4FA72042105A800F087
:1007D00067FD002840F06382E7E000BF00100240A0
:1007E000001001400000014000080140000C0140E1
:1007F00000700040006C004000F7FF1F07E0030896
:100800000C040020DEC007B000F0FF1F0804002029
:100810009946B24600F03CFD002800F0328100F01D
:100820002BFD0223C0B2AA283B70BED0B54800F011
:1008300053FDB54800F050FDB44800F04DFDB44BF9
:10084000B4481E68B44BB3F8E05000F045FDC6F361
:100850000B0000F04BFDB14800F03EFD300C00F005
:1008600045FDA84800F038FDADB2AD4800F034FDBC
:10087000284600F04DFDAB4DAB4800F02DFDAB48D8
:1008800000F02AFDD5F8E80700F030FDA84800F098
:1008900023FDD5F8EC0700F029FDA54800F01CFD6C
:1008A000D5F8F00700F022FD964800F015FD6368CA
:1008B000012B3AD19F4800F00FFD9F4800F00CFD3E
:1008C000914800F009FD9D4800F006FD9C4800F0AD
:1008D00003FD9C4800F000FD9B4800F0FDFC9B4898
:1008E00000F0FAFC9A4800F0F7FC9A4800F0F4FC9B
:1008F000994800F0F1FC994800F0EEFC824800F0C5
:10090000EBFC974800F0E8FC00F0B6FC05467D489B
:1009100000F0E2FCE8B23038072800F2B080DFE8EF
:1009200000F04409141E7F888EA18E4800F0D4FC8C
:100930008D48C3E78D4800F0CFFC00F09DFCAA284D
:10094000FBD100218A48FFF7A9FD884800F0C4FCCC
:1009500000F092FCAA28FBD100218648F3E78648E4
:1009600000F0BAFC0827002600F086FCC5B2284635
:1009700000F078FCA5F13003DBB2092B05D9A5F115
:100980006103052B14D8573DEBB2013F43EA06162D
:10099000EAD14FF001085B4800F09EFCB8F1000F6F
:1009A00000D076B9754800F097FC6068FFF7C8FC86
:1009B000A5F14103052B01D8373DE5E74FF00008CD
:1009C000E9E76B4B9E421FD26D4800F085FC00F0BA
:1009D00053FC814600F050FC074600F04DFC09F046
:1009E000DF09054600F048FC464800F075FCB9F107
:1009F000590F07D107F0DF07452F03D105F0DF05B9
:100A0000532D03D05F48CEE74FF00008574800F061
:100A100063FC00F031FCAA28FBD14146304692E746
:100A200000256560FFF7E6FC574800F055FC2846B6
:100A3000BCE701256560FFF7DDFC5448F5E7544845
:100A400000F04AFC00F07EFB5249534800F098FB4E
:100A500000F086FB514800F03FFC4FF4FA70FFF7BE
:100A600085FBA2E74E4800F037FC4E4800F034FC0E
:100A7000C820FFF77BFBFFF7EDFB4B4893E74B48A4
:100A800091E703AA08A90AA800F0DEFA002800F0FE
:100A9000DB8040F2DD72BDF8283093420ED19DF824
:100AA0000C30032B40F2D0801E4BD3F8E827089B74
:100AB0009A4240F0C98001233B7076E640F2DC7236
:100AC000934240F0C1809DF80C30042B40F2BC8072
:100AD000144B9DF82110D3F8E8379DF82000DAB2C6
:100AE00091420BD19DF82210C3F30722914205D108
:100AF0009DF82320C3F307439A4259D00121FFF701
:100B00005DFCA1E09314000852130008781300085C
:100B1000002004E09B13000800F7FF1FAC1300083F
:100B2000B613000800F0FF1FC0130008C61300082A
:100B3000CE130008D0130008F01300083614000884
:100B40006614000896140008B5140008D2140008B2
:100B5000EF1400081B150008541500089015000834
:100B6000A81500080314000823140008B71500088E
:100B70000080000800000208D6150008F2150008E1
:100B8000051600083E1600084B1600085F16000800
:100B900073160008FF8F0308008003089A160008E8
:100BA000D816000807170008401700087D1700082E
:100BB000082862D8DFE800F0050B131C2531384601
:100BC000550000210846FFF7F9FB322047E70021D6
:100BD000704B714A01201A60704B19708FE76D4B92
:100BE0006F4A00211A6001226C4B02201A7086E7BE
:100BF000684B099A00211A60FF22684B03201A7083
:100C00007DE700256560FFF7F5FB29460420FFF727
:100C1000D5FB3220FFF7AAFA09E701256560FFF747
:100C2000E9FB00210520F2E700F08CFA5D495E48FF
:100C300000F0A6FA00F094FA06200021FFF7BEFBB0
:100C4000C8200CE7FFF7A0FA40F66B230493049B3F
:100C50005A1E0492002BFAD10136B0457FF488ADBC
:100C6000A3E500210820FFF7A9FB3220FFF77EFA59
:100C7000FFF7F0FA0321082041E702213FE79DF842
:100C80000D30C5F104069E4228BF1E4605AB58191B
:100C900032460AA93544FFF7D3F9032D29D9059E19
:100CA000731EF52B3FF681AEDFF8E8A000F04AFA9C
:100CB000DAF8005005EB862B08260027B946B8461F
:100CC0003A4B0DF10D020AA90DF10E00019300F04F
:100CD000BBF9019B28B140F2DD71BDF80E208A42BC
:100CE00017D0013BEDD100F03BFA5EE6002540F263
:100CF000DD772F4E0DF10D020AA90DF10E0000F067
:100D0000A3F918B1BDF80E30BB42B8D0013EF1D105
:100D10004BE6B8F1800F11D10A9F08F10108B8F134
:100D2000810FCDD1FFF794FBB84218D04520013E8A
:100D3000FFF72EFB16F0FF06BFD1D4E79DF80D306C
:100D4000C9F580629A4228BF1A461A4B0AA903EBDA
:100D500009000192FFF774F9019A9144DDE72846F2
:100D60004FF48062134900F059FA05F58065502070
:100D7000FFF70EFBAB459FD100F0F2F90022064BC6
:100D80004420CAF80030054B1A70FFF701FB6420BD
:100D900065E600BF00000020008000080904002074
:100DA00000000208FF8F030800800308F0250800F8
:100DB0007C0902000800002040F66B23584382B0F3
:100DC0000190019B5A1E01920BB902B0704700BFFF
:100DD000F7E7000008222DE9F34103464FF0006CCD
:100DE00000204FF4006E032517464FF400261649E5
:100DF0001C064FEA43034CBFC1F810ECC1F810CCFD
:100E0000DBB20095009C04F1FF38CDF80080002C87
:100E1000F8D1C1F81078D1F8084C0195C4F38024BA
:100E200044EA4004E0B2019C04F1FF38CDF80480AC
:100E3000002CF8D1013A12F0FF02C1F81068D7D1A6
:100E400002B0BDE8F08100BF000001404FF48023F4
:100E500070B505460C46084E0220C6F81038FFF75C
:100E6000B9FF2846FFF7B6FF2046FFF7B3FF04237C
:100E7000C6F8103870BD00BF0000014038B54FF40F
:100E800080230446074D0320C5F81038FFF7A2FF62
:100E90002046FFF79FFF0020FFF79CFF0423C5F8C3
:100EA000103838BD00000140364A38B59369364CD9
:100EB00043F00C039361D4F80038042523F47F43F6
:100EC00043F44C53C4F80038D4F8043CC0206FF30A
:100ED000132343F4032343F48063C4F8043CD4F89D
:100EE0000C3C43F48053C4F80C3C4FF40023C4F88A
:100EF0001058C4F810384FF48023C4F81038FFF7A6
:100F000069FFC4F810580A20FFF756FF0A240E2084
:100F1000FFF7B4FF00F0E000802806D00120013C7C
:100F2000FFF74AFF14F0FF04F1D100212A20FFF758
:100F30008DFF9E212920FFF789FF03212820FFF73D
:100F400085FF64216020FFF781FF60217020FFF79B
:100F50007DFF00212B20FFF779FF00212C20FFF7D8
:100F600075FF00210F20FFF771FF0A240E20FFF705
:100F700085FF1F2804D90120FFF71EFF013CF5D192
:100F800038BD00BF001002400000014010B5002134
:100F90000F20FFF75BFF0A240E20FFF76FFF1F28CB
:100FA00007D90120FFF708FF013CF5D14FF0FF30D2
:100FB00010BD0020FCE700002DE9F041064630207E
:100FC0000D461446FFF75AFF10F0040737D14FF4CF
:100FD0008023082C28BF0824DFF868800220C8F886
:100FE0001038FFF7F7FE3120FFF7F4FEC6F3C70015
:100FF000FFF7F0FE700100F0E000FFF7EBFE38466F
:10100000FFF7E8FE3846FFF7E5FE2046FFF7E2FE71
:101010002C44A5420ED104244FF48023C8F8104874
:101020008120C8F81038FFF7D5FE0120C8F8104815
:10103000BDE8F08115F8010BFFF7CCFEE9E70020D1
:10104000F6E700BF000001402DE9FF4782462C2053
:101050000E461746FFF712FF034610F0030047D075
:101060004FF4802213F00105234B14BF90209620EB
:10107000C3F8102808BF0225E846FFF7ABFE0D2491
:101080000020FFF7A7FE013C14F0FF0408F8010B55
:10109000F6D14FF00409DFF860800DF10501C8F8C2
:1010A00010989DF801309DF800205B0943EAC203C7
:1010B0009DF80420AAF8003002F00F02082A28BF89
:1010C000082230463A70FEF7BBFF4FF4802305201C
:1010D000C8F81038FFF77EFE2C20FFF77BFE28466D
:1010E000FFF778FE2046FFF775FE0120C8F810983C
:1010F00004B0BDE8F08700BF00000140024AD36899
:10110000DB07FCD4704700BF002002400B4908B544
:10111000FFF7F4FF0B696FF30A0043F002030B6162
:1011200048610B6943F040030B61FFF7E7FF0B6970
:1011300023F002030B61024B186008BD002002403F
:1011400004000020044B1A69120641BF034A5A608A
:1011500002F188325A60704700200240230167453F
:10116000044A136943F0800313614FF0FF32024BCE
:101170001A6070470020024004000020FFF7C6BF3D
:1011800038B50D4620F4FF6424F00704AC4200D9C2
:1011900038BD2046FFF7BAFF04F50064F6E700000B
:1011A00010B5074CFFF7AAFF236943F00103236141
:1011B0000180FFF7A3FF236923F00103236110BD22
:1011C00000200240F8B504460E46154613B1114BF7
:1011D00098420CD3104B24F4FF601B6820F00700EA
:1011E000834201D0FFF792FF0023AB4200D3F8BD4A
:1011F0005F1CBD4298BFFF22F15C88BFF25D2046B4
:1012000088BF9F1C41EA0221FFF7CAFF02343B4618
:10121000EBE700BF00800008040000200123FFF777
:10122000D1BF0023FFF7CEBF0C4A936943F480433C
:1012300043F004039361A2F58832D2F8043823F412
:101240007F6343F49663C2F804384522044BC3F825
:10125000082842F20C02C3F80C2870470010024024
:1012600000300140034BD3F800281206FBD5C3F829
:101270000408704700300140044BD3F80028920660
:10128000FBD5D3F80408C0B2704700BF003001405E
:10129000024BD3F80008C0F3401070470030014003
:1012A00040F66A235A4330B50A4C014488420DD1B6
:1012B000012030BD5D1E5BB12B46D4F80058AD0651
:1012C000F8D5D4F8043800F8013BEFE71346F4E70B
:1012D0001846EEE70030014008B5411E11F8010F35
:1012E00000B908BDFFF7BEFFF8E7000038B51C21C4
:1012F0000446064D24FA01F303F00F03E85C0439B9
:10130000FFF7B0FF0B1DF5D138BD00BF88170008EF
:101310007FB528B9302004B0BDE87040FFF7A2BF08
:1013200001AB00211E460A25B0FBF5F405FB1402B3
:10133000303203F8012B0246092A204601F101014F
:10134000F2D80139705CFFF78DFF0029F9D104B0A4
:1013500070BD3D3D3D3D3D3D3D3D3D3D3D3D3D3D0A
:101360003D3D3D3D3D3D3D3D3D3D3D3D3D3D3D3DAD
:101370003D3D3D3D3D0D0A002020626950726F7079
:10138000656C6C616E742043414E2047656E6572DA
:10139000696320424C2076310D0A002020436869A1
:1013A000702044657649443A203078002020526508
:1013B000763A203078002020466C6173683A20002D
:1013C000204B420D0A0020205549443A20002D00B0
:1013D000202041637469766520736C6F743A2042F3
:1013E000202830783038303230303030290D0A0043
:1013F00020204E65787420626F6F743A202020425E
:101400000D0A00202041637469766520736C6F7447
:101410003A20412028307830383030383030302988
:101420000D0A0020204E65787420626F6F743A2098
:101430002020410D0A00205B315D20466C617368FD
:10144000202D3E20536C6F7420412020287072693B
:101450006D6172792C20202030783038303038306F
:101460003030290D0A00205B325D20466C617368C4
:10147000202D3E20536C6F7420422020287365631A
:101480006F6E646172792C203078303830323030B1
:101490003030290D0A00205B335D20466C61736893
:1014A000202D3E20637573746F6D206164647265D6
:1014B00073730D0A00205B345D20536574206E65E4
:1014C000787420626F6F743A20536C6F7420410DF2
:1014D0000A00205B355D20536574206E65787420AA
:1014E000626F6F743A20536C6F7420420D0A0020B3
:1014F0005B365D20436C656172204E5652414D2033
:101500002873657474696E67732061742030783055
:1015100038303338303030290D0A00205B375D20F9
:10152000456E74657220555342204446552028521A
:101530004F4D20626F6F746C6F616465722C205622
:1015400049445F303438333A5049445F444631317E
:10155000290D0A0020202020205573652053544D6A
:1015600033324375626550726F6772616D6D65727B
:10157000206F72206466752D7574696C206F6E2003
:1015800057696E646F77732F4C696E75780D0A001A
:10159000205B305D20426F6F74206170706C6963F6
:1015A0006174696F6E0D0A0043686F696365205B43
:1015B000302D375D3A200052656164792E205365E5
:1015C0006E64203078414120746F20626567696ED7
:1015D0002E2E2E0D0A00456E74657220382D64691A
:1015E0006769742068657820616464726573733A12
:1015F0002000496E76616C69642061646472657371
:10160000732E0D0A0021212120424F4F544C4F418F
:1016100044455220524547494F4E202D206F766554
:1016200072777269746520626F6F746C6F61646544
:10163000723F20285945532F6E6F293A200043618D
:101640006E63656C6C65642E0D0A004E65787420BF
:10165000626F6F743A20536C6F7420410D0A004E14
:1016600065787420626F6F743A20536C6F742042F7
:101670000D0A0045726173696E67204E5652414DE6
:1016800020617420307830383033383030302028C2
:10169000344B42292E2E2E0D0A00446F6E652E20EB
:1016A000426F6F7420616E642073657474696E6735
:1016B000732077696C6C20726573657420746F2079
:1016C00064656661756C74732E0D0A426F6F746980
:1016D0006E672E2E2E0D0A00456E746572696E6758
:1016E0002055534220444655206D6F64652028568E
:1016F00049445F303438333A5049445F44463131CD
:10170000292E2E2E0D0A00436F6E6E6563742055D0
:1017100053422C206F70656E2053544D3332437505
:10172000626550726F6772616D6D65722C207365B2
:101730006C65637420555342204446552E0D0A00B3
:10174000524F4D2044465520756E617661696C613B
:10175000626C65206F6E207468697320626F6172BD
:101760006420E28094207573696E672043414E2F98
:1017700055415254206F6E6C792E0D0A00496E76D9
:10178000616C69642E0D0A003031323334353637DE
:10179000383941424344454600000000F8B500BFD7
:1017A000F8BC08BC9E467047F8B500BFF8BC08BC42
:0417B0009E4670479A
:0817B40000800008FFFFFFFFA9
:040000050800012DC1
:00000001FF
