:020000040800F2
:10000000002000202D01000800000000000000007A
:1000100000000000000000000000000000000000E0
:1000200000000000000000000000000000000000D0
:1000300000000000000000000000000000000000C0
:10004000844641EA000313F0030349D1403A23D325
:100050000B6803604B6843608B688360CB68C36048
:100060000B6903614B6943618B698361CB69C36130
:100070000B6A03624B6A43628B6A8362CB6AC36218
:100080000B6B03634B6B43638B6B8363CB6BC36300
:1000900040304031403ADBD230320BD30B68036042
:1000A0004B6843608B688360CB68C360103010314D
:1000B000103AF3D20C3205D351F8043B40F8043B1C
:1000C000043AF9D2043208D0D2071CBF11F8013B20
:1000D00000F8013B01D30B8803806046704700BFE6
:1000E000082A13D38B07B1D010F00303AED0C3F1AD
:1000F0000403D21ADB071CBF11F8013B00F8013BD7
:10010000A4D331F8023B20F8023B9FE7043AD9D34D
:10011000013A11F8013B00F8013BF9D20B7803706A
:100120004B7843708B7883706046704772B60A488C
:100130000A490022884202DA40F8042BFAE708480C
:100140000849094A884204DA52F8043B40F8043B63
:10015000F8E700F0FFF9FEE7080000201404002093
:1001600000000020080000209C16000840F66B22CA
:1001700082B001380192019B591E0191002BFAD1E6
:100180000138F7D202B0704737B507212B4B40F248
:10019000DB70D3F8E827D3F8EC57D3F8F047284BB7
:1001A000ADF800101B7969468DF80230254B01929D
:1001B0001B7808228DF8033000F072FE1723694681
:1001C000ADF80030ADF802502B0C08222D0E40F295
:1001D000DB708DF80430ADF806408DF8055000F066
:1001E0005FFE2723ADF80030230C8DF80230164B4C
:1001F00069460822240E40F2DB7001938DF803401B
:1002000000F04EFE3720114B11491A68B1F8E0108A
:10021000130CC2F30B02ADF80000ADF802208DF80C
:100220000430ADF806101B0A0822694640F2DB7064
:100230008DF8053000F034FE03B030BD00F0FF1F34
:100240000C040020090400200100A1B2002004E0F9
:1002500000F7FF1F4FF0E0230021196159619961F8
:1002600072B64FF0FF32C3F88021C3F88421C3F87F
:100270008821C3F88022C3F88422C3F8882240F280
:10028000344203F1C04303F59833D9619961274B98
:100290001B68C3F30B03934230D8B3F5836F27D8A1
:1002A00040F21340224A2349834208BF0A460CE029
:1002B0006FF488621344204A9BB222FA03F313F0CE
:1002C000010F1C4B1A4A18BF1A461168536801F0F7
:1002D0007F40B0F1005F27D1D80725D5B3F1805F0B
:1002E00022D34FF0E020C0F8082D81F3088818478A
:1002F0006FF4836C6344114A9BB2DEE7B3F58B6FF6
:1003000004D8B3F5886FD3D8094ADEE740F26942D2
:10031000934206D8064A0749B3F58D6F28BF0A46AF
:10032000D3E740F27940BDE7704700BF002004E00A
:1003300000F0FF1F0000FF1F010180000105000DFC
:10034000114A124B10B5012808BF134672B64FF080
:10035000FF314FF0E022C2F88011C2F88411C2F8D8
:1003600088111868596800F07F44B4F1005F09D122
:10037000CC0707D5B1F1006F04D3C2F8083D80F374
:100380000888084730BFFDE7000002080080000829
:1003900007B5094A1278012A09D18DF8040001A98C
:1003A00040F2DE7000F07CFD03B05DF804FB03B0AA
:1003B0005DF804EB00F0CABE0804002007B50B4B43
:1003C0008DF800005B688DF801108DF80230084B45
:1003D00008221B7869468DF80330002340F2DB7059
:1003E000019300F05DFD03B05DF804FB0C040020F8
:1003F00009040020114B124AB3F8E03070B59BB2EB
:1004000003F50033B2EB832F16D200F00FFE0D4838
:1004100000F028FE0C4D0B4C0C4E697815F8023B91
:10042000204643EA0121023400F02EFEB442F4D10A
:10043000BDE8704000F008BE70BD00BF00F7FF1FB0
:1004400007E0030800E003080C04002008E00308AC
:100450004FF0FF30002130B50E4A0F4D937854789D
:100460001B0443EA042314782343D47843EA046347
:100470001BBA5840202300284FEA4000B8BF68400C
:10048000013BF8D10431B1F5806F02F10402E5D1EE
:1004900030BD00BF08000020B71DC1042DE9F341A5
:1004A000044653200F4600F051FE4FF4FA72042127
:1004B000684600F069FE18B9244B5868FFF740FF02
:1004C000009E731EF52BF7D800F0B0FDDFF880809A
:1004D00004EB8626082541F288324FF480614046BD
:1004E00000F052FE10B900F0AFFDE5E704214FF433
:1004F000FA620DEB010000F047FE0028F3D0FFF791
:10050000A7FF019B834207D04520013D00F01EFE5E
:1005100015F0FF05DFD1E6E74FF4806220460C4975
:100520008FB100F0F2FD502004F5806400F00EFE63
:10053000A642CFD100F088FD442000F007FE6420E1
:10054000FFF714FEB8E700F0DDFDECE70C04002037
:10055000080000202DE9F04F8DB072B64FF0E02377
:100560004FF0FF324BF20101AC4DC3F88021C3F8CC
:100570008421C3F88821EB69A94A43F0C053EB6199
:10058000136843F480731360A64B9A8892B28A4230
:1005900008BF00224DF6D07108BF9A801A8908BFA3
:1005A00047F2305892B218BF4FF4FA788A4203D11A
:1005B00000221A81FFF74EFE00269B4B9B49B3F8A1
:1005C000E0309B4C9BB29B4A03F50033B1EB832F89
:1005D000C4E9002607D2073903C99042C4E90001E3
:1005E00018BFC4E9002600F0D3FB00F043FC00F084
:1005F0008FFDAB69904F43F01003AB617B68002522
:1006000023F4700343F440137B604FF400537B6189
:1006100043F23313ADF81830884B06A9D3F8E83706
:1006200040F2DE701A0CADF81A301B0E8DF81D303A
:1006300001238DF81C200822ADF81E3000F030FC9C
:10064000FFF7A2FDB8F5FA7F0CBF0A234FF416732B
:10065000A946AB46AA467A4E019335703378D3B992
:10066000A5EB0A03312B30D9082240F2DE7006A92F
:1006700000F016FC4FF40052B9F1010F14BF7A617B
:100680003A61019A0BF1010B934589F001031AD3EA
:10069000B8F5FA7F17D13378002B00F02F81012BAA
:1006A00040F0AE805320FFF773FE3378012B00F04B
:1006B00096824FF4FA72042105A800F065FD002827
:1006C00040F066821AE19946AA4600F055FD0028DE
:1006D00000F0808100F044FD0223C0B2AA283370EC
:1006E000D9D0584800F06CFD574800F069FD5748D4
:1006F00000F066FD564B57481E684B4BB3F8E05070
:1007000000F05EFDC6F30B0000F064FD524800F0FF
:1007100057FD300C00F05EFD4A4800F051FDADB2CF
:100720004E4800F04DFD284600F066FD434D4C4814
:1007300000F046FD4B4800F043FDD5F8E80700F017
:1007400049FD494800F03CFDD5F8EC0700F042FDBA
:10075000454800F035FDD5F8F00700F03BFD39487D
:1007600000F02EFD6368012B3ED1404800F028FDCB
:100770003F4800F025FD344800F022FD3D4800F0E0
:100780001FFD3D4800F01CFD3C4800F019FD3C48B1
:1007900000F016FD3B4800F013FD3B4800F010FD53
:1007A0003A4800F00DFD3A4800F00AFD394800F0E3
:1007B00007FD254800F004FD374800F001FD00F07A
:1007C000CFFC05461F4800F0FBFCE8B23038072894
:1007D00000F2FE80DFE810F092000D0018006C00BF
:1007E000CD00D600DC00EF002C4800F0E9FC2C48DE
:1007F000BFE72C4800F0E4FC00F0B2FCAA28FBD1D3
:1008000000212948FFF74AFE264800F0D9FC00F0F5
:10081000A7FCAA28FBD100212448F3E700100240DE
:1008200000700040006C004000F7FF1F07E0030865
:100830000C040020DEC007B00010014000F0FF1FD4
:10084000080400207B1300083A1200086012000818
:10085000002004E083120008941200089E12000891
:10086000A8120008AE120008B6120008B81200085C
:10087000D81200081E1300084E1300087E1300084B
:100880009D130008BA130008D713000803140008CA
:100890003C1400087814000890140008EB120008BB
:1008A0000B1300089F1400080080000800000208D5
:1008B0009A4800F085FC0827002600F051FCC5B2DC
:1008C000284600F043FCA5F13003DBB2092B05D923
:1008D000A5F16103052B14D8573DEBB2013F43EA64
:1008E0000616EAD14FF001088D4800F069FCB8F116
:1008F000000F00D076B98B4800F062FC6068FFF70B
:100900001FFDA5F14103052B01D8373DE5E74FF069
:100910000008E9E7844B9E421FD2844800F050FC57
:1009200000F01EFC814600F01BFC074600F018FC9E
:1009300009F0DF09054600F013FC794800F040FC9F
:10094000B9F1590F07D107F0DF07452F03D105F0A3
:10095000DF05532D03D07648CEE74FF000087548E9
:1009600000F02EFC00F0FCFBAA28FBD141463046EB
:1009700048E700256560FFF73DFD6F4800F020FC6B
:100980002846BCE701256560FFF734FD6B48F5E7B5
:100990006B4800F015FC00F049FB6A496A4800F01A
:1009A00063FB00F051FB694800F00AFC4FF4FA7059
:1009B000FFF7DCFBA2E7664800F002FC654800F0A8
:1009C000FFFBC820FFF7D2FBFFF744FC624893E728
:1009D000624891E703AA08A90AA800F0A9FA00282A
:1009E00000F0818040F2DD72BDF8283093420CD1D6
:1009F0009DF80C30032B76D9594BD3F8E827089B88
:100A00009A4270D10123337045E640F2DC72934282
:100A100069D19DF80C30042B65D9514B9DF82110FC
:100A2000D3F8E8379DF82000DAB291420BD19DF857
:100A30002210C3F30722914205D19DF82320C3F36E
:100A400007439A4203D00121FFF7B8FC4BE0082886
:100A500062D8DFE800F0050B131C2531384655003D
:100A600000210846FFF7AAFC3220A1E700213D4BF8
:100A70002D4A01201A603C4B1970E5E7394B3B4A7F
:100A800000211A600122384B02201A70DCE7354B36
:100A9000099A00211A60FF22334B03201A70D3E712
:100AA00000256560FFF7A6FC29460420FFF786FCB9
:100AB0003220FFF75BFB63E701256560FFF79AFCD7
:100AC00000210520F2E700F0B1FA1E491E4800F0AF
:100AD000CBFA00F0B9FA06200021FFF76FFCC8201E
:100AE00066E7FFF751FB40F66B230493049B5A1E05
:100AF0000492002BFAD10135A8457FF4AFADCAE5C9
:100B000000210820FFF75AFC3220FFF72FFBFFF7E8
:100B1000A1FB0321082097E7022195E7BE140008F6
:100B20007B130008DA14000800800008ED140008A8
:100B3000261500089F140008331500084715000803
:100B40005B150008FF8F030800800308821500086A
:100B5000C0150008EF1500082816000865160008E3
:100B600000F0FF1F00000020090400200000020820
:100B70009DF80D30C5F104069E4228BF1E4605AB08
:100B8000581932460AA93544FFF75AFA032D29D9D4
:100B9000059E731EF52B3FF6B1AEDFF8E8A000F01E
:100BA00045FADAF8005005EB862B08260027B946EF
:100BB000B846354B0DF10D020AA90DF10E00019357
:100BC00000F0B6F9019B28B140F2DD71BDF80E20AE
:100BD0008A4217D0013BEDD100F036FA8EE60025AF
:100BE00040F2DD77294E0DF10D020AA90DF10E003C
:100BF00000F09EF918B1BDF80E30BB42B8D0013EEE
:100C0000F1D17BE6B8F1800F11D10A9F08F10108FC
:100C1000B8F1810FCDD1FFF71BFCB84218D04520A9
:100C2000013EFFF7B5FB16F0FF06BFD1D4E79DF8F4
:100C30000D30C9F580629A4228BF1A46144B0AA9A2
:100C400003EB09000192FFF7FBF9019A9144DDE7FC
:100C500028464FF480620E4900F054FA05F580658D
:100C60005020FFF795FBAB459FD100F0EDF9002236
:100C7000084B4420CAF80030074B1A70FFF788FB76
:100C8000642095E600000020F02508007C090200A1
:100C900008000020008000080904002040F66B23B3
:100CA000584382B00190019B5A1E01920BB902B0C9
:100CB000704700BFF7E700002DE9F3410346082223
:100CC00000204FF4802C4FF0040E03254FF4806772
:100CD0004FF0806615491C064FEA43034CBFC1F82C
:100CE00010E8C1F810C8DBB20095009C04F1FF3891
:100CF000CDF80080002CF8D1C1F8107CD1F808485C
:100D00000195C4F3C00444EA4004E0B2019C04F13C
:100D1000FF38CDF80480002CF8D1013A12F0FF0220
:100D2000C1F8106CD7D102B0BDE8F08100000140DD
:100D30004FF0006370B505460C46084E0220C6F819
:100D4000103CFFF7B9FF2846FFF7B6FF2046FFF734
:100D5000B3FF4FF40063C6F8103C70BD00000140C3
:100D600038B54FF000630446084D0320C5F8103C29
:100D7000FFF7A2FF2046FFF79FFF0020FFF79CFF31
:100D80004FF40063C5F8103C38BD00BF00000140BF
:100D9000364A38B59369364C43F00C039361D4F866
:100DA00000384FF4006523F47F4343F48643C4F8CE
:100DB0000038D4F8043CC0206FF3132343F403231A
:100DC00043F44073C4F8043CD4F80C3C43F480531F
:100DD000C4F80C3C4FF08063C4F8105CC4F8103CBD
:100DE0004FF00063C4F8103CFFF766FFC4F8105CD6
:100DF0000A20FFF753FF0A240E20FFF7B1FF00F08F
:100E0000E000802806D00120013CFFF747FF14F0E6
:100E1000FF04F1D100212A20FFF78AFF9E2129201B
:100E2000FFF786FF03212820FFF782FF642160205F
:100E3000FFF77EFF60217020FFF77AFF00212B2053
:100E4000FFF776FF00212C20FFF772FF00210F2013
:100E5000FFF76EFF0A240E20FFF782FF1F2804D938
:100E60000120FFF71BFF013CF5D138BD0010024007
:100E70000000014010B500210F20FFF759FF0A24A0
:100E80000E20FFF76DFF1F2807D90120FFF706FF8F
:100E9000013CF5D14FF0FF3010BD0020FCE7000011
:100EA0002DE9F041064630200D461446FFF758FF65
:100EB00010F0040738D14FF00063082C28BF082435
:100EC000DFF868800220C8F8103CFFF7F5FE3120FB
:100ED000FFF7F2FEC6F3C700FFF7EEFE700100F069
:100EE000E000FFF7E9FE3846FFF7E6FE3846FFF779
:100EF000E3FE2046FFF7E0FE2C44A5420FD14FF45D
:100F000000644FF00063C8F8104C8120C8F8103C12
:100F1000FFF7D2FE0120C8F8104CBDE8F08115F8AB
:100F2000010BFFF7C9FEE8E70020F6E700000140EB
:100F30002DE9FF4782462C200E461746FFF710FF8B
:100F4000034610F0030047D04FF0006213F0010594
:100F5000234B14BF90209620C3F8102C08BF022505
:100F6000E846FFF7A9FE0D240020FFF7A5FE013C8F
:100F700014F0FF0408F8010BF6D14FF40069DFF814
:100F800060800DF10501C8F8109C9DF801309DF8B6
:100F900000205B0943EAC2039DF80420AAF8003050
:100FA00002F00F02082A28BF082230463A70FFF7E5
:100FB00047F84FF000630520C8F8103CFFF77CFEAF
:100FC0002C20FFF779FE2846FFF776FE2046FFF734
:100FD00073FE0120C8F8109C04B0BDE8F08700BF84
:100FE00000000140024AD368DB07FCD4704700BF11
:100FF000002002400B4908B5FFF7F4FF0B696FF3BF
:101000000A0043F002030B6148610B6943F040039F
:101010000B61FFF7E7FF0B6923F002030B61024B43
:10102000186008BD0020024004000020044B1A692B
:10103000120641BF034A5A6002F188325A60704773
:101040000020024023016745044A136943F08003EE
:1010500013614FF0FF32024B1A60704700200240CC
:1010600004000020FFF7C6BF38B50D4620F4FF642A
:1010700024F00704AC4200D938BD2046FFF7BAFF80
:1010800004F50064F6E7000010B5074CFFF7AAFF6F
:10109000236943F0010323610180FFF7A3FF236964
:1010A00023F00103236110BD00200240F8B504467F
:1010B0000E46154613B1114B98420CD3104B24F435
:1010C000FF601B6820F00700834201D0FFF792FF0A
:1010D0000023AB4200D3F8BD5F1CBD4298BFFF2286
:1010E000F15C88BFF25D204688BF9F1C41EA022167
:1010F000FFF7CAFF02343B46EBE700BF0080000861
:10110000040000200123FFF7D1BF0023FFF7CEBF6B
:101110000C4A936943F4804343F004039361A2F5BE
:101120008832D2F8043823F47F6343F49663C2F81C
:1011300004384522044BC3F8082842F20C02C3F8D5
:101140000C2870470010024000300140034BD3F8D8
:1011500000281206FBD5C3F8040870470030014090
:10116000044BD3F800289206FBD5D3F80408C0B28C
:10117000704700BF00300140024BD3F80008C0F3B5
:10118000401070470030014040F66A235A4330B5A2
:101190000A4C014488420DD1012030BD5D1E5BB177
:1011A0002B46D4F80058AD06F8D5D4F8043800F82A
:1011B000013BEFE71346F4E71846EEE70030014045
:1011C00008B5411E11F8010F00B908BDFFF7BEFFB9
:1011D000F8E7000038B51C210446064D24FA01F357
:1011E00003F00F03E85C0439FFF7B0FF0B1DF5D1E6
:1011F00038BD00BF701600087FB528B9302004B094
:10120000BDE87040FFF7A2BF01AB00211E460A25D2
:10121000B0FBF5F405FB1402303203F8012B024653
:10122000092A204601F10101F2D80139705CFFF76B
:101230008DFF0029F9D104B070BD3D3D3D3D3D3DE0
:101240003D3D3D3D3D3D3D3D3D3D3D3D3D3D3D3DCE
:101250003D3D3D3D3D3D3D3D3D3D3D3D3D0D0A005E
:101260002020626950726F70656C6C616E742043EF
:10127000414E2047656E6572696320424C2076318D
:101280000D0A002020436869702044657649443A7D
:101290002030780020205265763A203078002020D7
:1012A000466C6173683A2000204B420D0A002020F2
:1012B0005549443A20002D00202041637469766529
:1012C00020736C6F743A20422028307830383032E6
:1012D00030303030290D0A0020204E6578742062AD
:1012E0006F6F743A202020420D0A00202041637461
:1012F00069766520736C6F743A204120283078300D
:1013000038303038303030290D0A0020204E6578D2
:101310007420626F6F743A202020410D0A00205B18
:10132000315D20466C617368202D3E20536C6F74D4
:1013300020412020287072696D6172792C20202054
:1013400030783038303038303030290D0A00205BAA
:10135000325D20466C617368202D3E20536C6F74A3
:1013600020422020287365636F6E646172792C209F
:1013700030783038303230303030290D0A00205B80
:10138000335D20466C617368202D3E206375737455
:101390006F6D20616464726573730D0A00205B34A5
:1013A0005D20536574206E65787420626F6F743AA7
:1013B00020536C6F7420410D0A00205B355D205373
:1013C0006574206E65787420626F6F743A20536C78
:1013D0006F7420420D0A00205B365D20436C65610E
:1013E00072204E5652414D202873657474696E67A1
:1013F0007320617420307830383033383030302901
:101400000D0A00205B375D20456E746572205553D0
:1014100042204446552028524F4D20626F6F746C15
:101420006F616465722C205649445F303438333A1A
:101430005049445F44463131290D0A0020202020C4
:10144000205573652053544D333243756265507295
:101450006F6772616D6D6572206F72206466752DA5
:101460007574696C206F6E2057696E646F77732F87
:101470004C696E75780D0A00205B305D20426F6FFD
:1014800074206170706C69636174696F6E0D0A001D
:1014900043686F696365205B302D375D3A200052E9
:1014A000656164792E2053656E6420307841412057
:1014B000746F20626567696E2E2E2E0D0A00456ED0
:1014C00074657220382D64696769742068657820B6
:1014D000616464726573733A2000496E76616C6969
:1014E0006420616464726573732E0D0A00212121EA
:1014F00020424F4F544C4F4144455220524547499A
:101500004F4E202D206F7665727772697465206268
:101510006F6F746C6F616465723F20285945532F5B
:101520006E6F293A200043616E63656C6C65642EB2
:101530000D0A004E65787420626F6F743A20536C08
:101540006F7420410D0A004E65787420626F6F74CD
:101550003A20536C6F7420420D0A00457261736922
:101560006E67204E5652414D2061742030783038DD
:101570003033383030302028344B42292E2E2E0D77
:101580000A00446F6E652E20426F6F7420616E6496
:101590002073657474696E67732077696C6C207250
:1015A0006573657420746F2064656661756C74730F
:1015B0002E0D0A426F6F74696E672E2E2E0D0A0073
:1015C000456E746572696E672055534220444655D6
:1015D000206D6F646520285649445F303438333AB3
:1015E0005049445F44463131292E2E2E0D0A0043C6
:1015F0006F6E6E656374205553422C206F70656E5C
:101600002053544D33324375626550726F67726177
:101610006D6D65722C2073656C6563742055534243
:10162000204446552E0D0A00524F4D204446552069
:10163000756E617661696C61626C65206F6E207495
:1016400068697320626F61726420E2809420757310
:10165000696E672043414E2F55415254206F6E6C86
:10166000792E0D0A00496E76616C69642E0D0A00B0
:1016700030313233343536373839414243444546C8
:1016800000000000F8B500BFF8BC08BC9E467047DB
:0C169000F8B500BFF8BC08BC9E467047CF
:08169C0000800008FFFFFFFFC2
:040000050800012DC1
:00000001FF
